:100000000C9462000C948A000C948A000C948A0070
:100010000C948A000C948A000C948A000C948A0038
:100020000C948A000C948A000C948A000C948A0028
:100030000C948A000C948A000C948A000C948A0018
:100040000C9400010C948A000C9427030C946A030E
:100050000C948A000C948A000C948A000C948A00F8
:100060000C948A000C948A00000000070002010032
:100070000003040600000000000000000102040864
:100080001020408001020408102001020408102002
:10009000040404040404040402020202020203032E
:1000A00003030303000000002300260029000000D2
:1000B0000000250028002B0000000000240027007D
:1000C0002A00290411241FBECFEFD8E0DEBFCDBF28
:1000D00011E0A0E0B1E0E4E2FAE002C005900D9288
:1000E000A234B107D9F722E0A2E4B1E001C01D9229
:1000F000AA31B207E1F710E0C2E6D0E004C02197D0
:10010000FE010E94FD04C136D107C9F70E94CE044A
:100110000C9410050C94000040E052EC61E070E09B
:1001200080E791E00E94A50360E082E00E94F9016F
:1001300060E083E00E94F90161E08DE00C94F90138
:1001400061E08DE00E943502809165019091660129
:100150000196F9F42091630130916401409100010E
:1001600090916201842F8927F901EE5BFE4F808315
:100170002F5F3F4F30936401209363018427809366
:1001800000011092620187E090E0909366018093F5
:10019000650140E250E061E171E082E491E00E949B
:1001A0000305892B31F461E071E080E791E00E9462
:1001B000BC0482E00E946402019709F560E08DE0D2
:1001C0000E94350283E00E94640220916501309113
:1001D0006601A901415051095093660140936501A0
:1001E00001C0880F2A95EAF790916201892B8093CC
:1001F000620168EE73E080E090E00C946F01089576
:100200001F920F920FB60F9211242F933F938F934B
:100210009F93AF93BF938091680190916901A091E2
:100220006A01B0916B013091670123E0230F2D37F4
:1002300020F40196A11DB11D05C026E8230F0296EA
:10024000A11DB11D209367018093680190936901FE
:10025000A0936A01B0936B0180916C0190916D0144
:10026000A0916E01B0916F010196A11DB11D809307
:100270006C0190936D01A0936E01B0936F01BF91DB
:10028000AF919F918F913F912F910F900FBE0F9043
:100290001F9018953FB7F89480916C0190916D0173
:1002A000A0916E01B0916F0126B5A89B05C02F3FAC
:1002B00019F00196A11DB11D3FBFBA2FA92F982F8C
:1002C0008827820F911DA11DB11DBC01CD0142E007
:1002D000660F771F881F991F4A95D1F70895CF920F
:1002E000DF92EF92FF92CF93DF936B017C010E942C
:1002F0004A01EB01C114D104E104F10479F00E9438
:100300004A016C1B7D0B683E7340A0F381E0C81A64
:10031000D108E108F108C851DC4FECCFDF91CF9153
:10032000FF90EF90DF90CF900895789484B582602D
:1003300084BD84B5816084BD85B5826085BD85B589
:10034000816085BDEEE6F0E0808181608083E1E838
:10035000F0E0108280818260808380818160808370
:10036000E0E8F0E0808181608083E1EBF0E0808173
:1003700084608083E0EBF0E0808181608083EAE745
:10038000F0E08081846080838081826080838081CE
:10039000816080838081806880831092C10008958D
:1003A000833081F028F4813099F08230A1F00895F3
:1003B0008630A9F08730B9F08430D1F48091800084
:1003C0008F7D03C0809180008F7780938000089597
:1003D00084B58F7702C084B58F7D84BD08958091E8
:1003E000B0008F7703C08091B0008F7D8093B00004
:1003F0000895CF93DF9390E0FC01E458FF4F2491E0
:10040000FC01E057FF4F8491882361F190E0880F51
:10041000991FFC01E854FF4FC591D491FC01E255AE
:10042000FF4FA591B491611109C09FB7F8948881DD
:10043000209582238883EC912E230BC0623061F4D7
:100440009FB7F8948881322F309583238883EC916D
:100450002E2B2C939FBF06C08FB7F894E8812E2BCC
:1004600028838FBFDF91CF9108951F93CF93DF93A0
:10047000282F30E0F901E859FF4F8491F901E45841
:10048000FF4FD491F901E057FF4FC491CC23C1F045
:10049000162F81110E94D001EC2FF0E0EE0FFF1F0C
:1004A000E255FF4FA591B4919FB7F894111104C084
:1004B0008C91D095D82302C0EC91DE2BDC939FBFAA
:1004C000DF91CF911F910895CF93DF93282F30E0D4
:1004D000F901E859FF4F8491F901E458FF4FD49195
:1004E000F901E057FF4FC491CC2391F081110E9494
:1004F000D001EC2FF0E0EE0FFF1FEC55FF4FA59160
:10050000B491EC91ED2381E090E021F480E002C011
:1005100080E090E0DF91CF910895FC01248535853E
:10052000F901E05CFF4F8081918132962081318119
:10053000821B930B8F7399270895DC011C96ED9114
:10054000FC911D97DF01A05CBF4F2D913C9111974D
:1005500012968D919C9111972817390739F08D913A
:100560009C91E80FF91F808190E008958FEF9FEF35
:100570000895FC01A485B585FD01E05CFF4F208155
:1005800031813296808191812817390779F08081F5
:100590009181A80FB91F8C91208131812F5F3F4F2E
:1005A0002F7333273183208390E008958FEF9FEFDF
:1005B0000895FC0181A1882329F0A489B5898C9133
:1005C00086FFFBCF11A208950F931F93CF93DF9364
:1005D000FC01A685B7858D01005C1F4FE80188816D
:1005E000998101968F739927AD014E5B5F4FEA01A8
:1005F0002881398128173907D1F3E8012881398109
:10060000A20FB31F6C93A685B785A05CBF4F119650
:100610009C938E93A689B7892C9181E090E0078CFA
:1006200002C0880F991F0A94E2F7822B8C9381E015
:1006300081A30488F589E02D80818064808381E036
:1006400090E0DF91CF911F910F91089508951F922F
:100650000F920FB60F9211242F934F935F938F93A6
:100660009F93EF93FF938091C00082FD1CC0209167
:10067000C600809116029091170240911802509185
:10068000190201968F7399274817590771F0E09165
:100690001602F0911702EA52FE4F20839093170240
:1006A0008093160202C08091C600FF91EF919F9146
:1006B0008F915F914F912F910F900FBE0F901F90D0
:1006C000189580E791E00E948D02892B11F00C941F
:1006D000260308951F920F920FB60F9211242F93A5
:1006E0003F938F939F93EF93FF932091D20130918B
:1006F000D3018091D4019091D5012817390731F4A5
:100700008091C1008F7D8093C10014C0E091D4011D
:10071000F091D501EE56FE4F20818091D401909149
:10072000D50101968F7399279093D5018093D401B9
:100730002093C600FF91EF919F918F913F912F9150
:100740000F900FBE0F901F901895CF92DF92EF92EF
:10075000FF92CF93DF93EC016A017B014115514E6B
:100760006105710509F1EC89FD8981E090E008A03F
:1007700002C0880F991F0A94E2F7808360E079E055
:100780008DE390E0A70196010E94DB04DA01C90124
:100790000197A109B109B695A795979587959C01F1
:1007A000211580E13807A8F0EC89FD89108260E806
:1007B00074E88EE190E0A70196010E94DB04DA0163
:1007C000C9010197A109B109B695A7959795879594
:1007D0009C01E889F9893083EA89FB89208319A281
:1007E000EE89FF89408181E090E09C010C8C02C081
:1007F000220F331F0A94E2F7242B2083EE89FF890E
:1008000040819C010D8C02C0220F331F0A94E2F735
:10081000242B2083EE89FF8940819C010E8C02C02D
:10082000220F331F0A94E2F7242B2083EE89FF89DD
:1008300020810F8C02C0880F991F0A94E2F78095DF
:1008400082238083DF91CF91FF90EF90DF90CF9054
:100850000895E0E7F1E01382128288EE93E0A0E0D1
:10086000B0E084839583A683B78385E391E0918389
:10087000808386ED91E09587848782E991E0978770
:10088000868785EC90E0918B808B84EC90E0938B55
:10089000828B80EC90E0958B848B81EC90E0978B41
:1008A000868B82EC90E0918F808F86EC90E0938F26
:1008B000828F84E0848F83E0858F87E0868F85E058
:1008C000878F81E080A30895CF92DF92EF92FF920D
:1008D0000F931F93CF93DF936C01EB017B01E40E29
:1008E000F51E00E010E0CE15DF0561F06991D6013C
:1008F000ED91FC910190F081E02DC6010995080F62
:10090000191FF1CFC801DF91CF911F910F91FF9077
:10091000EF90DF90CF9008956115710579F0FB019C
:1009200001900020E9F73197AF01461B570BDC011E
:10093000ED91FC910280F381E02D099480E090E03C
:100940000895DC01ED91FC910190F081E02D099476
:100950000F931F93CF93DF93EC016DE00E94A104EE
:100960008C016AE0CE010E94A104800F911FDF91EB
:10097000CF911F910F9108950F931F93CF93DF9302
:10098000EC010E948C048C01CE010E94A804800F0F
:10099000911FDF91CF911F910F9108950E949501B2
:1009A0000E948C00C1E6D3E00E94A0002097E1F3F2
:1009B0000E946103F9CFA1E21A2EAA1BBB1BFD0105
:1009C0000DC0AA1FBB1FEE1FFF1FA217B307E4072E
:1009D000F50720F0A21BB30BE40BF50B661F771F86
:1009E000881F991F1A9469F7609570958095909566
:1009F0009B01AC01BD01CF010895EE0FFF1F0590D3
:100A0000F491E02D0994FB01DC0104C08D9101906B
:100A1000801921F441505040C8F7881B990B089564
:040A2000F894FFCF78
:100A240069736963652E20676F7420666C61672E35
:100A3400001B1701090C1218104B6F6E03076A3D57
:100A44001B0D113A2F15172D2C16060C010A3B000D
:100A54000300000000E40264048D02B9029D02D97F
:020A640002008E
:00000001FF
